:020000040000FA
:1000000021EC00F04DEF00F0F29E9EAA18EF00F0F8
:10001000AE50236E836E300E235E23A019EF00F0E6
:10002000FF0E836E246E68EC00F085EC00F09E9A63
:10003000100092EC00F0836A246A68EC00F09E9A4B
:1000400010000F017E6A0F01FF0E936E946A988470
:10005000948E956A200E9D6E400EF26E400EAF6E2D
:10006000240EAC6E0F01800EAB6E236AF28EAB884D
:100070000F019294979C0F019496949A0F01826AB3
:10008000836A8084859C5DEC00F0858CA2EC00F096
:10009000C7EC00F0008C008E1200008C009E010E58
:1000A000DAEC00F0008E7BEC00F0836E83A092EC23
:1000B00000F085EC00F05BEF00F00A0E226EFA0E05
:1000C000216E0000212E62EF00F0222EFCD71200DC
:1000D000F29E0F01110EA96E2450A86E0F01A69E6C
:1000E000A684550EA76EAA0EA76EA682A6B2FED74C
:1000F000A694000112000F01110EA96E0F01A69E19
:10010000A6800F01A85000011200008C009E010E75
:10011000DAEC00F0008E4F0EDAEC00F04E0EDAEC66
:1001200000F01200008C009E010EDAEC00F0008E50
:100130004F0EDAEC00F0460EDAEC00F0460EDAEC88
:1001400000F012000F01C76A400EC76E0F01C66AA9
:10015000220EC66E8094400EC96E3FEC02F0000E77
:10016000C96E3FEC02F0000EC96E3FEC02F08084D5
:100170008094400EC96E3FEC02F0010EC96E3FEC58
:1001800002F0000EC96E3FEC02F0808412007F0E78
:10019000006E380E016EE2EC01F00C0E016EE2EC26
:1001A00001F0010E016EE2EC01F0060E016EE2ECD0
:1001B00001F01200016EE2EC01F01200410EDAECE7
:1001C00000F01200420EDAEC00F01200430EDAECFE
:1001D00000F01200440EDAEC00F01200450EDAECEA
:1001E00000F01200460EDAEC00F01200470EDAECD6
:1001F00000F01200480EDAEC00F01200490EDAECC2
:1002000000F012004A0EDAEC00F012004B0EDAECAD
:1002100000F012004C0EDAEC00F012004D0EDAEC99
:1002200000F012004E0EDAEC00F01200D10EDAEC03
:1002300000F012004F0EDAEC00F01200500EDAEC73
:1002400000F01200510EDAEC00F01200520EDAEC5F
:1002500000F01200530EDAEC00F01200540EDAEC4B
:1002600000F01200550EDAEC00F01200560EDAEC37
:1002700000F01200570EDAEC00F01200580EDAEC23
:1002800000F01200590EDAEC00F012005A0EDAEC0F
:1002900000F01200610EDAEC00F01200620EDAECEF
:1002A00000F01200630EDAEC00F01200640EDAECDB
:1002B00000F01200650EDAEC00F01200660EDAECC7
:1002C00000F01200670EDAEC00F01200680EDAECB3
:1002D00000F01200690EDAEC00F012006A0EDAEC9F
:1002E00000F012006B0EDAEC00F012006C0EDAEC8B
:1002F00000F012006D0EDAEC00F012006E0EDAEC77
:1003000000F01200F10EDAEC00F012006F0EDAECE1
:1003100000F01200700EDAEC00F01200710EDAEC50
:1003200000F01200720EDAEC00F01200730EDAEC3C
:1003300000F01200740EDAEC00F01200750EDAEC28
:1003400000F01200760EDAEC00F01200770EDAEC14
:1003500000F01200780EDAEC00F01200790EDAEC00
:1003600000F012007A0EDAEC00F01200200EDAEC47
:1003700000F01200310EDAEC00F01200320EDAEC6E
:1003800000F01200330EDAEC00F01200340EDAEC5A
:1003900000F01200350EDAEC00F01200360EDAEC46
:1003A00000F01200370EDAEC00F01200380EDAEC32
:1003B00000F01200390EDAEC00F01200300EDAEC28
:1003C00000F012000F0180940F019E96400EC96E3E
:1003D0003FEC02F00F019E96120EC96E3FEC02F048
:1003E0000F019E963F0EC96E3FEC02F00F01808414
:1003F0000F0180940F019E96400EC96E3FEC02F0F3
:100400000F019E96130EC96E3FEC02F00F019E96EF
:10041000000101500F01C96E3FEC02F00F01808412
:100420000F0180940F019E96400EC96E3FEC02F0C2
:100430000F019E96120EC96E3FEC02F00F019E96C0
:10044000000100500F01C96E3FEC02F00F018084E3
:100450000F0180940F019E96400EC96E3FEC02F092
:100460000F019E96120EC96E3FEC02F00F019E9690
:100470003F0EC96E3FEC02F00F01808412009EA671
:0A0480003FEF02F09E96C9501200F3
:020000040030CA
:06000100021F1EF303853F
:06000800FFC0FFE0FF4015
:00000001FF
