:020000040000FA
:1000000021EC00F04DEF00F0F29E9EAA18EF00F0F8
:10001000AE50236E836E300E235E23A019EF00F0E6
:10002000FF0E836E246E60EC00F07DEC00F09E9A73
:1000300010008AEC00F0836A246A60EC00F09E9A5B
:1000400010000F017E6A0F01FF0E936E946A988470
:10005000948E956A200E9D6E400EF26E400EAF6E2D
:10006000240EAC6E0F01800EAB6E236AF28EAB884D
:100070000F019294979C0F019496949A0F01826AB3
:10008000836A8084859C55EC00F0858C9AEC00F0A6
:10009000BFEC00F0008C008E1200008C009E010E60
:1000A000D2EC00F0008E4DEF00F00A0E226EFA0E38
:1000B000216E0000212E5AEF00F0222EFCD71200F4
:1000C000F29E0F01110EA96E240EA86E0F01A69EBE
:1000D000A684550EA76EAA0EA76EA682A6B2FED75C
:1000E000A694000112000F01110EA96E0F01A69E29
:1000F000A6800F01A85000011200008C009E010E86
:10010000D2EC00F0008E4F0ED2EC00F04E0ED2EC8E
:1001100000F01200008C009E010ED2EC00F0008E68
:100120004F0ED2EC00F0460ED2EC00F0460ED2ECB0
:1001300000F012000F01C76A400EC76E0F01C66AB9
:10014000220EC66E8094400EC96E37EC02F0000E8F
:10015000C96E37EC02F0000EC96E37EC02F08084F5
:100160008094400EC96E37EC02F0010EC96E37EC78
:1001700002F0000EC96E37EC02F0808412007F0E90
:10018000006E380E016EDAEC01F00C0E016EDAEC46
:1001900001F0010E016EDAEC01F0060E016EDAECF0
:1001A00001F01200016EDAEC01F01200410ED2EC07
:1001B00000F01200420ED2EC00F01200430ED2EC1E
:1001C00000F01200440ED2EC00F01200450ED2EC0A
:1001D00000F01200460ED2EC00F01200470ED2ECF6
:1001E00000F01200480ED2EC00F01200490ED2ECE2
:1001F00000F012004A0ED2EC00F012004B0ED2ECCE
:1002000000F012004C0ED2EC00F012004D0ED2ECB9
:1002100000F012004E0ED2EC00F01200D10ED2EC23
:1002200000F012004F0ED2EC00F01200500ED2EC93
:1002300000F01200510ED2EC00F01200520ED2EC7F
:1002400000F01200530ED2EC00F01200540ED2EC6B
:1002500000F01200550ED2EC00F01200560ED2EC57
:1002600000F01200570ED2EC00F01200580ED2EC43
:1002700000F01200590ED2EC00F012005A0ED2EC2F
:1002800000F01200610ED2EC00F01200620ED2EC0F
:1002900000F01200630ED2EC00F01200640ED2ECFB
:1002A00000F01200650ED2EC00F01200660ED2ECE7
:1002B00000F01200670ED2EC00F01200680ED2ECD3
:1002C00000F01200690ED2EC00F012006A0ED2ECBF
:1002D00000F012006B0ED2EC00F012006C0ED2ECAB
:1002E00000F012006D0ED2EC00F012006E0ED2EC97
:1002F00000F01200F10ED2EC00F012006F0ED2EC02
:1003000000F01200700ED2EC00F01200710ED2EC70
:1003100000F01200720ED2EC00F01200730ED2EC5C
:1003200000F01200740ED2EC00F01200750ED2EC48
:1003300000F01200760ED2EC00F01200770ED2EC34
:1003400000F01200780ED2EC00F01200790ED2EC20
:1003500000F012007A0ED2EC00F01200200ED2EC67
:1003600000F01200310ED2EC00F01200320ED2EC8E
:1003700000F01200330ED2EC00F01200340ED2EC7A
:1003800000F01200350ED2EC00F01200360ED2EC66
:1003900000F01200370ED2EC00F01200380ED2EC52
:1003A00000F01200390ED2EC00F01200300ED2EC48
:1003B00000F012000F0180940F019E96400EC96E4E
:1003C00037EC02F00F019E96120EC96E37EC02F068
:1003D0000F019E963F0EC96E37EC02F00F0180842C
:1003E0000F0180940F019E96400EC96E37EC02F00B
:1003F0000F019E96130EC96E37EC02F00F019E9608
:10040000000101500F01C96E37EC02F00F0180842A
:100410000F0180940F019E96400EC96E37EC02F0DA
:100420000F019E96120EC96E37EC02F00F019E96D8
:10043000000100500F01C96E37EC02F00F018084FB
:100440000F0180940F019E96400EC96E37EC02F0AA
:100450000F019E96120EC96E37EC02F00F019E96A8
:100460003F0EC96E37EC02F00F01808412009EA689
:0A04700037EF02F09E96C95012000B
:020000040030CA
:06000100021F1EF303853F
:06000800FFC0FFE0FF4015
:00000001FF
