:020000040000FA
:1000000021EC00F051EF00F0F29E9EAA18EF00F0F4
:10001000AE50236E836E300E235E23A019EF00F0E6
:10002000FF0E836E246E6CEC00F089EC00F09E9A5B
:10003000100096EC00F0836A246A6CEC00F09E9A43
:1000400010000F017E6A0F01FF0E936E946A988470
:10005000948E956A200E9D6E400EF26E400EAF6E2D
:10006000240EAC6E0F01800EAB6E236AF28EAB884D
:100070000F019294979C0F019496949A0F01826AB3
:10008000836A8084859C61EC00F0858CA6EC00F08E
:10009000CBEC00F0008C008E120096EC00F05FEFCD
:1000A00000F0008C009E010EDEEC00F0008E7FEC74
:1000B00000F0836E83A24DEF00F089EC00F05FEF5B
:1000C00000F00A0E226EFA0E216E0000212E66EF5D
:1000D00000F0222EFCD71200F29E0F01110EA96E25
:1000E0002450A86E0F01A69EA684550EA76EAA0ED8
:1000F000A76EA682A6B2FED7A694000112000F0139
:10010000110EA96E0F01A69EA6800F01A850000136
:100110001200008C009E010EDEEC00F0008E4F0EEF
:10012000DEEC00F04E0EDEEC00F01200008C009EC3
:10013000010EDEEC00F0008E4F0EDEEC00F0460EFD
:10014000DEEC00F0460EDEEC00F012000F01C76A94
:10015000400EC76E0F01C66A220EC66E8094400E16
:10016000C96E43EC02F0000EC96E43EC02F0000EC3
:10017000C96E43EC02F080848094400EC96E43EC5B
:1001800002F0010EC96E43EC02F0000EC96E43ECA2
:1001900002F0808412007F0E006E380E016EE6ECD5
:1001A00001F00C0E016EE6EC01F0010E016EE6ECC2
:1001B00001F0060E016EE6EC01F01200016EE6ECB5
:1001C00001F01200410EDEEC00F01200420EDEECF7
:1001D00000F01200430EDEEC00F01200440EDEECE4
:1001E00000F01200450EDEEC00F01200460EDEECD0
:1001F00000F01200470EDEEC00F01200480EDEECBC
:1002000000F01200490EDEEC00F012004A0EDEECA7
:1002100000F012004B0EDEEC00F012004C0EDEEC93
:1002200000F012004D0EDEEC00F012004E0EDEEC7F
:1002300000F01200D10EDEEC00F012004F0EDEECEA
:1002400000F01200500EDEEC00F01200510EDEEC59
:1002500000F01200520EDEEC00F01200530EDEEC45
:1002600000F01200540EDEEC00F01200550EDEEC31
:1002700000F01200560EDEEC00F01200570EDEEC1D
:1002800000F01200580EDEEC00F01200590EDEEC09
:1002900000F012005A0EDEEC00F01200610EDEECEF
:1002A00000F01200620EDEEC00F01200630EDEECD5
:1002B00000F01200640EDEEC00F01200650EDEECC1
:1002C00000F01200660EDEEC00F01200670EDEECAD
:1002D00000F01200680EDEEC00F01200690EDEEC99
:1002E00000F012006A0EDEEC00F012006B0EDEEC85
:1002F00000F012006C0EDEEC00F012006D0EDEEC71
:1003000000F012006E0EDEEC00F01200F10EDEECDA
:1003100000F012006F0EDEEC00F01200700EDEEC4A
:1003200000F01200710EDEEC00F01200720EDEEC36
:1003300000F01200730EDEEC00F01200740EDEEC22
:1003400000F01200750EDEEC00F01200760EDEEC0E
:1003500000F01200770EDEEC00F01200780EDEECFA
:1003600000F01200790EDEEC00F012007A0EDEECE6
:1003700000F01200200EDEEC00F01200310EDEEC78
:1003800000F01200320EDEEC00F01200330EDEEC54
:1003900000F01200340EDEEC00F01200350EDEEC40
:1003A00000F01200360EDEEC00F01200370EDEEC2C
:1003B00000F01200380EDEEC00F01200390EDEEC18
:1003C00000F01200300EDEEC00F012000F018094FD
:1003D0000F019E96400EC96E43EC02F00F019E96EF
:1003E000120EC96E43EC02F00F019E963F0EC96ECD
:1003F00043EC02F00F0180840F0180940F019E9660
:10040000400EC96E43EC02F00F019E96130EC96EAA
:1004100043EC02F00F019E96000101500F01C96EDE
:1004200043EC02F00F0180840F0180940F019E962F
:10043000400EC96E43EC02F00F019E96120EC96E7B
:1004400043EC02F00F019E96000100500F01C96EAF
:1004500043EC02F00F0180840F0180940F019E96FF
:10046000400EC96E43EC02F00F019E96120EC96E4B
:1004700043EC02F00F019E963F0EC96E43EC02F072
:100480000F01808412009EA643EF02F09E96C95091
:02049000120058
:020000040030CA
:06000100021F1EF303853F
:06000800FFC0FFE0FF4015
:00000001FF
